:020000040800F2
:1000000000000220391B0008710400087304000876
:100010007504000877040008790400080000000057
:100020000000000000000000000000007B04000849
:100030007D040008000000007F040008810400081F
:10004000891B0008891B0008891B0008891B000800
:10005000891B0008891B0008891B0008891B0008F0
:10006000891B0008891B0008891B0008891B0008E0
:10007000891B0008891B0008891B0008891B0008D0
:10008000891B0008891B0008891B0008891B0008C0
:10009000891B0008891B0008891B0008891B0008B0
:1000A000891B0008891B0008891B0008891B0008A0
:1000B000891B0008891B0008891B0008891B000890
:1000C000891B0008891B0008891B0008891B000880
:1000D000891B0008891B0008891B0008891B000870
:1000E000891B0008891B0008891B0008891B000860
:1000F000891B0008891B0008891B0008891B000850
:10010000891B0008891B0008891B0008891B00083F
:10011000891B0008891B0008891B0008891B00082F
:10012000891B0008891B0008891B0008891B00081F
:10013000891B0008891B0008891B0008891B00080F
:10014000891B0008891B0008891B0008891B0008FF
:10015000891B0008891B0008891B0008891B0008EF
:10016000891B0008891B0008891B0008891B0008DF
:10017000891B0008891B0008891B0008000000007B
:08018000891B0008891B00081F
:1001900001F0FF01102A2BDB10F0070F08D010F838
:1001A000013B013A8B422DD010F0070F42B3F6D13C
:1001B000F0B441EA012141EA014122F007047FF055
:1001C00000070023F0E80256083C85EA010586EAAC
:1001D000010685FA47F5A3FA87F586FA47F6A5FAE8
:1001E00087F68EB9EED1F0BC01F0FF0102F00702F4
:1001F00032B110F8013B013A83EA010313B1F8D19F
:100200000020704701387047002D06BF354603387F
:10021000073815F0010F07D1013015F4807F02BFB8
:10022000013015F4C03F0130F0BC0138704700BF09
:1002300053B94AB9002908BF00281CBF4FF0FF314D
:100240004FF0FF3000F00CB8ADF1080C6DE904CEB2
:1002500002F0C6FBDDF804E0DDE9022304B07047DC
:10026000704700BF10B5054C237833B9044B13B168
:100270000448AFF300800123237010BD6800002004
:10028000000000009C2C000808B5034B1BB103497B
:100290000348AFF3008008BD000000006C000020A0
:1002A0009C2C000882B0002100910B4B1A6B42F08D
:1002B00001021A631A6B02F001020092009A019186
:1002C0001A6B42F002021A631B6B03F002030193E4
:1002D000019B02B0704700BF0038024000B585B0F6
:1002E00000238DF80F304FF0FF33009301230DF101
:1002F0000F025221034800F0C3FB9DF80F0005B028
:100300005DF804FBD000002010B514464FF0FF3319
:1003100092B2024801F0ABFB204610BD88000020DD
:1003200072B6FEE708B50A480A4B03600A4B436001
:1003300000238360C3604FF48042026143618361A4
:10034000C361036200F0BEFA00B908BDFFF7E8FF21
:10035000D000002000540040A086010008B50A48E3
:100360000A4B03604FF4E133436000238360C360B2
:1003700003610C2242618361C36101F048FB00B953
:1003800008BDFFF7CDFF00BF88000020001001402E
:1003900010B594B008AC30220021204601F010FDC9
:1003A00000230393049305930693079301931F4A35
:1003B000116C41F080511164126C02F08052019274
:1003C000019A02931A4A116841F48041116012683F
:1003D00002F480420292029A0222089201210B91B9
:1003E00010210C910E920F93082310933223119336
:1003F0000423129307231393204600F0BFFC88B90F
:100400000F23039302230493002105914FF4C0535B
:1004100006934FF48053079303A800F019FF18B90F
:1004200014B010BDFFF77CFFFFF77AFF00380240E1
:100430000070004008B501F067F9FFF7A9FFFFF76A
:1004400031FFFFF76FFFFFF789FF05E0064801F076
:1004500061FC642001F084F9FFF740FF0146034B83
:1004600018700828F2D9F4E7B42C000884000020A2
:10047000FEE7FEE7FEE7FEE7FEE7704770477047DE
:1004800008B501F05BF908BD00B583B0002100910B
:100490000C4B5A6C42F480425A645A6C02F480420B
:1004A0000092009A01911A6C42F080521A641B6CFF
:1004B00003F080530193019B072001F0C9F803B0BA
:1004C0005DF804FB0038024030B589B00023039387
:1004D00004930593069307930268144B9A4201D044
:1004E00009B030BD00250195114C236B43F0020388
:1004F0002363236B03F002030193019BC023039347
:1005000012230493032306930423079303A90948A2
:1005100000F074FF0295236C43F400132364236CF2
:1005200003F400130293029BDAE700BF005400407B
:10053000003802400004024000B589B00023039354
:100540000493059306930793026803F1804303F530
:1005500088339A4202D009B05DF804FB0021019172
:1005600003F594335A6C42F010025A645A6C02F04C
:1005700010020192019A02911A6B42F001021A6371
:100580001B6B03F001030293029B4FF4C0630393C0
:1005900002230493032306930723079303A9024826
:1005A00000F02CFFD7E700BF000002402DE9F0412A
:1005B00006460C46174698463BE001F0CBF8069BF2
:1005C000C01A404502D8B8F1000F32D1012D18D021
:1005D00033689B6924EA03039BB2B3FA83F35B0994
:1005E0009F4226D100233363202286F83D2086F8DF
:1005F0003E30326C42F02002326486F83C300120FA
:1006000027E033685B6924EA03039BB2B3FA83F300
:100610005B09E5E733685B6924EA030C1FFA8CFC8D
:10062000BCFA8CFC4FEA5C1C674511D1B8F1FF3F66
:10063000C3D1C4F30745012DECD033689B6924EA8C
:10064000030C1FFA8CFCBCFA8CFC4FEA5C1CEBE739
:100650000020BDE8F0812DE9F84305460E4690469E
:10066000994653E01A6842F400721A602B686FF4DE
:1006700080625A6100232B63202285F83D2085F893
:100680003E302A6C42F004022A6485F83C30012096
:100690004AE001F05FF8A0EB0900404502D8B8F14C
:1006A000000F33D1012F17D02B689B6926EA030373
:1006B0009BB2003B18BF012343B300232B632022CE
:1006C00085F83D2085F83E302A6C42F020022A64ED
:1006D00085F83C30012027E02B685B6926EA03039C
:1006E0009BB2003B18BF0123E6E72B689C6926EA12
:1006F0000404A4B2003C18BF0124A4B12B685A69B9
:1007000012F4806FAED1B8F1FF3FC2D1C6F30747F4
:10071000012FEAD12B685C6926EA0404A4B2003CEC
:1007200018BF0124E9E70020BDE8F8832DE9F04176
:1007300084B004460D4616461F46C26A01680B681F
:1007400043F480630B60082A0DD0012A0BD012F508
:10075000803F08D0036B112B0AD10268136843F461
:100760008073136004E02268136843F4807313609D
:100770000097334600224FF001112046FFF716FF85
:1007800098B92369B3F5804F19D1236845F0010565
:10079000EDB21D613B4632462A492046FFF75BFF1A
:1007A00000284CD104B0BDE8F08123681B6813F425
:1007B000807F02D04FF4007323640320F2E74FEAF6
:1007C000E51808F00608236848F0F0021A613B4675
:1007D00032461D492046FFF73EFF08B10120E1E700
:1007E0002368EDB21D613B46324616492046FFF7AD
:1007F00032FF08B10120D5E700220392236859692E
:100800000391996903910399196841F48071196002
:10081000009733464FF001112046FFF7C7FE20B97D
:10082000226848F0F1031361B4E723681B6813F4EE
:10083000807F02D04FF4007323640320B2E70120CD
:10084000B0E700BF020001000800010070B50446D7
:100850000D46164614E06FF010025A610023236320
:10086000202284F83D2084F83E30226C226484F8F3
:100870003C30012025E023685B6913F0400F10D065
:100880002368586910F0400F1AD1586910F0100F02
:10089000E1D100F05FFF801BA842ECD8002DEFD122
:1008A000E9E700232363202284F83D2084F83E30CA
:1008B000226C42F02002226484F83C30012000E0E7
:1008C000002070BD002800F0CC8070B5044690F880
:1008D0003D30002B77D0242384F83D302268136804
:1008E00023F0010313602268136843F4004313608C
:1008F0002268136823F40043136000F05FFD626810
:100900005A4B9A4264D85A4B98428CBF0023012319
:10091000002B40F0A8805749A1FB00318B0C2568C3
:100920006A6822F03F0242EA91426A6021680A6ADC
:1009300022F03F0266684D4DAE424FD8013313435B
:100940000B622168CA6922F44F4222F0FF026568F7
:10095000464B9D424CD8431E6D00B3FBF5F301336B
:1009600040F6FC70034278D0C3F30B031A43CA610C
:1009700021680B6823F0C003E269206A0243134335
:100980000B6021688B6823F4034323F0FF03226983
:10099000E068024313438B602168CB6823F0FF03B8
:1009A0006269A06902431343CB602268136843F075
:1009B0000103136000202064202384F83D3020636D
:1009C00084F83E0070BD80F83C30FFF77DFD82E783
:1009D000294B98428CBF0023012399E74FF4967569
:1009E00005FB03F3254DA5FB03539B090133A6E744
:1009F000A668BEB9431E05EB450CB3FBFCF30133FF
:100A0000C3F30B03B3FA83F35B0943BBC6B9431EBD
:100A100005EB4505B3FBF5F30133C3F30B0343F4D7
:100A20000043A3E7431E05EB850C0CEB8C0CB3FBDA
:100A3000FCF30133C3F30B03B3FA83F35B09E4E77D
:100A4000431E05EB850505EB8505B3FBF5F3013387
:100A5000C3F30B0343F4404388E7042386E70123F1
:100A600084E7012070470120ACE700BFA0860100A9
:100A70007F841E0083DE1B43FF083D00D34D6210C0
:100A80002DE9F04387B004460F46904699460E9EE6
:100A900000F060FE94F83D10202904D0022738466B
:100AA00007B0BDE8F08305460090192301228A496A
:100AB0002046FFF77BFD002840F0508194F83C3041
:100AC000012B00F04D81012384F83C3023681A6823
:100AD00012F0010F03D11A6842F001021A60226875
:100AE000136823F400631360222384F83D3010233D
:100AF00084F83E3000232364C4F82480A4F82A90AC
:100B0000638D2385754BE3622B463246394620467A
:100B1000FFF70CFE0746002840F02481238D5BB9C7
:100B2000029323685A6902929A690292029A1A6899
:100B300042F400721A607AE0012B0FD0022B1FD012
:100B40002268136843F480631360002305932368CD
:100B50005A6905929B690593059B68E022681368B2
:100B600023F4806313600023039323685A6903927C
:100B70009A690392039A1A6842F400721A6056E066
:100B80002268136823F4806313602268136843F4B7
:100B9000006313600023049323685A6904929B69DD
:100BA0000493049B43E02A4631462046FFF74EFE5D
:100BB000002840F0D98023681A69636A1A70636A52
:100BC00001336362238D013B2385638D9BB2013B1F
:100BD0009BB263852BE000953346002240492046B6
:100BE000FFF7E4FC002840F0C1802268136843F45A
:100BF0000073136023681A69636A1A70626A531C6F
:100C00006362238D013B2385638D9BB2013B9BB2C5
:100C1000638523681B695370636A01336362238DA4
:100C2000013B2385638D9BB2013B9BB26385218D84
:100C3000002900F08A80032954D80129B3D0022961
:100C4000C9D000953346002225492046FFF7AEFC67
:100C5000002840F08D802268136823F480631360BD
:100C600023681A69636A1A70636A01336362238DA9
:100C7000013B2385618D89B2013989B26185009577
:100C80003346002216492046FFF790FC002871D118
:100C90002268136843F40073136023681A69636A57
:100CA0001A70626A531C6362238D013B2385638D36
:100CB0009BB2013B9BB2638523681B695370636AD7
:100CC00001336362238D013B2385638D9BB2013B1E
:100CD0009BB26385ABE700BF020010000000FFFF7E
:100CE000040001002A4631462046FFF7AFFD0028E8
:100CF00042D123681A69636A1A70636A01336362B6
:100D0000228D013A92B22285638D9BB2013B9BB248
:100D100063852368596911F0040F88D0032A0FD026
:100D200023681A69636A1A70636A01336362238DE8
:100D3000013B2385638D9BB2013B9BB2638576E7C4
:100D40001A6822F480621A60EAE7202384F83D30B2
:100D5000002384F83E3084F83C30A0E602279EE66B
:100D600002279CE601279AE6012798E6012796E6E6
:100D7000012794E6012792E6012790E6002800F07B
:100D8000E08170B582B00446036813F0010F3BD0D8
:100D90009F4B9B6803F00C03042B2CD09C4B9B684F
:100DA00003F00C03082B21D06368B3F5803F4FD0CC
:100DB000B3F5A02F52D0964B1A6822F480321A60F5
:100DC0001A6822F480221A606368002B50D000F069
:100DD000C1FC05468E4B1B6813F4003F14D100F094
:100DE000B9FC401B6428F5D90320B1E1884B5B684E
:100DF00013F4800FD8D0864B1B6813F4003F03D048
:100E00006368002B00F09F81236813F0020F54D019
:100E10007F4B9B6813F00C0F3ED07D4B9B6803F01B
:100E20000C03082B33D0E368002B68D0794B0122E8
:100E30001A6000F08FFC0546754B1B6813F0020F1B
:100E400054D100F087FC401B0228F5D903207FE134
:100E50006F4A136843F480331360B5E76C4B1A682C
:100E600042F480221A601A6842F480321A60ABE7BA
:100E700000F070FC0546664B1B6813F4003FC3D0BE
:100E800000F068FC401B6428F5D9032060E1604B4A
:100E90005B6813F4800FC6D15D4B1B6813F0020F23
:100EA00003D0E368012B40F05081594A136823F0C6
:100EB000F803216943EAC1031360236813F0080FA4
:100EC00042D063696BB3534B0122C3F8802E00F00C
:100ED00041FC05464E4B5B6F13F0020F34D100F01E
:100EE00039FC401B0228F5D9032031E1484A136838
:100EF00023F0F803216943EAC1031360DDE7454BA2
:100F000000221A6000F026FC0546414B1B6813F0D6
:100F1000020FD2D000F01EFC401B0228F5D903209E
:100F200016E13C4B0022C3F8802E00F013FC05466E
:100F3000374B5B6F13F0020F06D000F00BFC401B29
:100F40000228F5D9032003E1236813F0040F77D0BA
:100F50002F4B1B6C13F0805F33D1002301932C4B7C
:100F60001A6C42F080521A641B6C03F08053019398
:100F7000019B0125284B1B6813F4807F23D0A368B5
:100F8000012B34D0052B38D0214B1A6F22F00102EF
:100F90001A671A6F22F004021A67A368002B3DD06B
:100FA00000F0D8FB06461A4B1B6F13F0020F46D118
:100FB00000F0D0FB801B41F288339842F3D9032024
:100FC000C6E00025D6E7144A136843F48073136023
:100FD00000F0C0FB0646104B1B6813F4807FCED197
:100FE00000F0B8FB801B0228F5D90320B0E0084AC6
:100FF000136F43F001031367CFE7054B1A6F42F0FD
:1010000004021A671A6F42F001021A67C5E700BFAF
:1010100000380240000047420070004000F09AFB98
:101020000646524B1B6F13F0020F08D000F092FBE4
:10103000801B41F288339842F3D9032088E0EDB950
:10104000A369002B00F08380484A926802F00C02EA
:10105000082A51D0022B17D0454B00221A6600F007
:1010600079FB0446414B1B6813F0007F42D000F02F
:1010700071FB001B0228F5D9032069E03B4A136C81
:1010800023F080531364DBE7394B00221A6600F02B
:1010900061FB0546354B1B6813F0007F06D000F05E
:1010A00059FB401B0228F5D9032051E0E369226A6D
:1010B0001343626A43EA8213A26A5208013A43EA7E
:1010C0000243E26A43EA0263284A5360284B012242
:1010D0001A6600F03FFB0446244B1B6813F0007FA8
:1010E00006D100F037FB001B0228F5D903202FE0C2
:1010F00000202DE000202BE0012B2BD01B4B5B6848
:1011000003F48001E269914226D103F03F02216A93
:101110008A4223D1616A47F6C0721A40B2EB811F3E
:101120001ED103F44031A26A5208013AB1EB024FDA
:1011300018D103F07063E26AB3EB026F14D10020A0
:1011400006E001207047012002E0012000E00020BD
:1011500002B070BD0120FBE70120F9E70120F7E7AD
:101160000120F5E70120F3E70120F1E70038024014
:101170000000474208B5334B9B6803F00C03042B77
:101180005BD0082B5BD12F4B5A6802F03F025B68A3
:1011900013F4800F2CD02B4B5868C0F388104FEA03
:1011A000401CBCEB000C6EEB0E0E4FEA8E1343EAB4
:1011B0009C634FEA8C11B1EB0C0163EB0E03DB0077
:1011C00043EA5173C90011EB000C43F100035902CB
:1011D00000234FEA4C2041EADC51FFF729F8194B74
:1011E0005B68C3F3014301335B00B0FBF3F008BD60
:1011F000144B5868C0F388104FEA401CBCEB000C3D
:101200006EEB0E0E4FEA8E1343EA9C634FEA8C118D
:10121000B1EB0C0163EB0E03DB0043EA5173C90031
:1012200011EB000C43F10003990200234FEA8C20DC
:1012300041EA9C51FEF7FCFFD1E70348D7E703489A
:10124000D5E700BF0038024000127A000024F40005
:10125000002800F09B8070B50D4604464F4B1B687C
:1012600003F007038B4208D2CBB24C4A13701368C9
:1012700003F007038B4240F08B80236813F0020FCA
:1012800017D013F0040F04D0454A936843F4E05399
:101290009360236813F0080F04D0414A936843F425
:1012A000604393603E4A936823F0F003A1680B43C8
:1012B0009360236813F0010F32D06368012B21D0B3
:1012C0009A1E012A25D9364A126812F0020F61D0FF
:1012D00033498A6822F0030213438B6000F03AFA24
:1012E00006462F4B9B6803F00C036268B3EB820F3A
:1012F00016D000F02FFA801B41F288339842F0D9C3
:10130000032042E0264A126812F4003FE0D1012097
:101310003BE0234A126812F0007FD9D1012034E06B
:101320001E4B1B6803F00703AB4207D9EAB21B4B05
:101330001A701B6803F00703AB422DD1236813F02A
:10134000040F06D0164A936823F4E053E1680B4378
:101350009360236813F0080F07D0114A936823F4B1
:101360006043216943EAC1039360FFF703FF0C4B1D
:101370009B68C3F303130B4AD35CD8400A4B186035
:101380000A4B186800F09AF9002070BD01207047E0
:101390000120FAE70120F8E70120F6E7003C0240CF
:1013A00000380240E02C0008080000200400002063
:1013B000014B1868704700BF0800002008B5FFF710
:1013C000F7FF044B9B68C3F38223034AD35CD840E6
:1013D00008BD00BF00380240D82C000808B5FFF750
:1013E000E7FF044B9B68C3F34233034AD35CD84006
:1013F00008BD00BF00380240D82C000800230F2B86
:1014000000F2E98070B582B065E085684FEA430E6E
:10141000032404FA0EF425EA0405CC6804FA0EF459
:101420002C438460446824EA02044A68C2F3001230
:101430009A40224342605CE0DC08083450F82420E3
:1014400003F00705AD004FF00F0E0EFA05FE22EA7D
:101450000E0E0A69AA4042EA0E0240F824205CE01F
:10146000072200E0002202FA0EF22A4302345A4D0B
:1014700045F82420594A94686FEA0C0224EA0C05C6
:101480004E6816F4801F01D04CEA0405534CA56049
:10149000E46802EA04054E6816F4001F01D04CEA25
:1014A00004054E4CE560646802EA04054E6816F4D3
:1014B000003F01D04CEA0405484C65602468224096
:1014C0004D6815F4803F01D04CEA0402434C226081
:1014D00001330F2B7DD801229A400C6804EA020CDC
:1014E00032EA0404F4D14C6804F00304013C012CFA
:1014F0008BD94A6802F00302032A09D0C4685D0050
:101500000322AA4024EA02048A68AA402243C26055
:101510004A6802F00302022A8ED004684FEA430EA2
:10152000032202FA0EF224EA02044A6802F00302DD
:1015300002FA0EF2224302604A6812F4403FC7D01A
:1015400000220192264A546C44F480445464526C44
:1015500002F480420192019A9C08A51C1E4A52F88E
:10156000255003F0030E4FEA8E0E0F2202FA0EF200
:1015700025EA02051B4A90423FF474AF02F58062EF
:1015800090421AD002F58062904218D002F5806233
:10159000904216D002F58062904214D002F580622B
:1015A000904212D002F58062904210D002F5806223
:1015B00090423FF455AF082255E7012253E702223B
:1015C00051E703224FE704224DE705224BE70622AD
:1015D00049E702B070BD704700380140003C01404F
:1015E0000038024000000240002808DB0901C9B2AF
:1015F00000F1604000F5614080F80013704700F092
:101600000F000901C9B2014B1954704714ED00E0F5
:1016100000B500F00700C0F1070CBCF1040F28BFB3
:101620004FF0040C031D062B0FD9C31E4FF0FF3ED5
:101630000EFA0CF021EA000199400EFA03FE22EAAC
:101640000E0241EA02005DF804FB0023EEE7000011
:10165000074AD36823F4E0631B041B0C000200F468
:10166000E060034343F0BF6343F40033D36070474B
:1016700000ED00E010B50446054BD868C0F3022029
:10168000FFF7C6FF01462046FFF7AEFF10BD00BFC3
:1016900000ED00E00138B0F1807F0BD24FF0E02385
:1016A0005861054AF02182F8231000209861072232
:1016B0001A6170470120704700ED00E010B5044644
:1016C0000E4B1A784FF47A73B3FBF2F30C4A10689E
:1016D000B0FBF3F0FFF7DEFF68B90F2C01D9012052
:1016E0000AE0002221464FF0FF30FFF7C3FF054B11
:1016F0001C60002000E0012010BD00BF00000020A1
:10170000080000200400002008B50B4B1A6842F4C2
:1017100000721A601A6842F480621A601A6842F411
:1017200080721A600320FFF793FF0020FFF7C6FFC7
:10173000FEF7AAFE002008BD003C0240034A1168E3
:10174000034B1B780B441360704700BF240100203B
:1017500000000020014B1868704700BF24010020E2
:1017600038B50446FFF7F6FF0546B4F1FF3F02D057
:10177000044B1B781C44FFF7EDFF401BA042FAD33B
:1017800038BD00BF00000020034AD2F8883043F47F
:101790007003C2F88830704700ED00E010B50346D2
:1017A0000C4A0D490D48006840B10C4800680344DC
:1017B000521A934206D8094A136010BD0748084CD4
:1017C0000460F2E700F04AFB0C2303604FF0FF30A7
:1017D000F3E700BF00000220000400002801002001
:1017E0007802002070B50C461646002506E0AFF3DF
:1017F0000080214601F8010B01350C46B542F6DBAD
:10180000304670BD4FF0FF3070474FF400534B60CF
:10181000002070470120704700207047026802F1E5
:101820000C0353E8003F23F490730C3242E800317C
:101830000029F3D1026802F1140353E8003F23F0BA
:101840000103143242E800310029F3D1036B012B6C
:1018500005D0202380F842300023036370470268DC
:1018600002F10C0353E8003F23F010030C3242E86E
:1018700000310029F3D1ECE710B504460268136982
:1018800023F44053C1680B431361836802691A4310
:1018900043691A43C3691A430168CB6823F41643AA
:1018A00023F00C031343CB600268536923F44073A5
:1018B00081690B4353610368314A934206D002F5B4
:1018C0008062934202D0FFF779FD01E0FFF786FDC9
:1018D000E369B3F5004F29D00021031849411B18D3
:1018E00041F10001C90041EA5371DB001818636837
:1018F0004FEA83024FEA937341F10001FEF798FC2F
:10190000204AA2FB00314909642303FB11031B0198
:101910003233A2FB03235B0903F0F00202EB011256
:1019200003F00F03216813448B6010BD00230218DD
:1019300043EB0301121841F10001C90041EA527161
:10194000D200101841F10001626892185B41FEF765
:101950006FFC0C4AA2FB00314909642303FB11030D
:10196000DB003233A2FB03235B095A0002F4F87256
:1019700002EB011203F00703216813448B60D4E7E4
:10198000001001401F85EB512DE9F04383B005465F
:101990000E4617469946DDF828802B681C6836EA03
:1019A00004040CBF01240024BC4228D1B8F1FF3F3D
:1019B000F3D0FFF7CFFEA0EB0900404523D8B8F1E4
:1019C000000F22D02B68DA6812F0040FE5D0802EC9
:1019D000E3D0402EE1D01A6812F0080FDDD00024C9
:1019E00001941A6801925B680193019B2846FFF7F6
:1019F00015FF08236B6485F84040012000E00020BB
:101A000003B0BDE8F0830320FAE70320F8E760B3F2
:101A100010B5044690F8413013B3242384F84130C4
:101A20002268D36823F40053D3602046FFF724FFD5
:101A30002268136923F4904313612268536923F0E9
:101A40002A0353612268D36843F40053D360002013
:101A50006064202384F8413084F84230606310BD14
:101A600080F84030FEF768FDD7E7012070472DE988
:101A7000F04182B01E4690F84130202B56D10446EA
:101A80000D469046002955D00AB901204FE00023A9
:101A90004364212380F84130FFF75CFE0746A4F839
:101AA0002480A4F82680A368B3F5805F02D04FF0AD
:101AB000000814E023692BB34FF000080FE0202347
:101AC00084F84130032032E038F8023B2268C3F347
:101AD00008035360E28C92B2013A92B2E284E38C42
:101AE0009BB293B100963B46002280212046FFF72F
:101AF0004BFF0028E3D1002DE6D015F8012B236819
:101B00005A60E7E7A8460025E9E700963B46002231
:101B100040212046FFF738FF18B9202384F84130D0
:101B200005E0202384F84130032000E0022002B0C9
:101B3000BDE8F0810120FAE7DFF834D0FFF724FE9A
:101B40000C480D490D4A002302E0D458C450043318
:101B5000C4188C42F9D30A4A0A4C002301E01360EE
:101B60000432A242FBD300F07FF9FEF763FC70471A
:101B7000000002200000002068000020342D000832
:101B80006800002078020020FEE70000002310B566
:101B90000446C0E90033C0E90433836081814366B1
:101BA000C2818361194608225C3000F009F90D4BAF
:101BB00063620D4BA3620D4BE3620D4B23630D4B30
:101BC00024629C4206D003F16802944202D0D033D2
:101BD0009C4205D104F15800BDE8104000F068B9FE
:101BE00010BD00BF391D00085B1D0008931D0008D3
:101BF000B91D00082C010020024A0349034800F0E7
:101C00006BB800BF0C0000204D2700081C0000200E
:101C100041680C4B994210B5044601D000F096FD86
:101C2000A168094B994202D0204600F08FFDE1687F
:101C3000064B994204D02046BDE8104000F086BD16
:101C400010BD00BF2C01002094010020FC010020E9
:101C50000C4B0D4A0D4810B504211A600022FFF705
:101C600095FF0A4B01221C46092103F16800FFF78A
:101C70008DFF04F1D0000222BDE810401221FFF7D1
:101C800085BF00BF64020020F91B00082C01002062
:101C9000014800F00EB900BF6D020020014800F0BD
:101CA00009B900BF6D02002010B50446FFF7F0FF30
:101CB000236A1BB1BDE81040FFF7F0BF044B23625D
:101CC000044B1B68002BF5D1FFF7C2FFF2E700BF02
:101CD000111C0008640200202DE9F84307468846DD
:101CE00014460026D4E90195B9F1010905D5246807
:101CF000002CF7D13046BDE8F883AB89012B07D91A
:101D0000B5F90E30013303D029463846C0470643A3
:101D10006835E9E70FB407B5064904AB086853F81E
:101D2000042B8168019300F0E9F903B05DF804EB3E
:101D300004B070471800002010B50C46B1F90E1021
:101D400000F068F80028ABBF636DA3891B1823F46B
:101D50008053ACBF6365A38110BD2DE9F0411F46E0
:101D60008B89DB0505460C46164605D5B1F90E10E4
:101D70000223002200F03CF8A389B4F90E1023F4EA
:101D80008053A38132463B462846BDE8F04100F02F
:101D900053B810B50C46B1F90E1000F029F8B4F99B
:101DA0000C30421C0BBF23F4805343F48053A381B7
:101DB000A38118BF606510BDB1F90E1000F008B81E
:101DC00002440346934200D1704703F8011BF9E730
:101DD00038B5064D0023044608462B60FFF712FD78
:101DE000431C02D12B6803B1236038BD6802002078
:101DF00038B5074D04460846114600222A601A46A7
:101E0000FFF70AFD431C02D12B6803B1236038BDE4
:101E10006802002038B5074D0446084611460022E6
:101E20002A601A46FFF7DEFC431C02D12B6803B17F
:101E3000236038BD6802002038B5074D04460846C7
:101E4000114600222A601A46FEF75EFA431C02D1B0
:101E50002B6803B1236038BD68020020014B18686D
:101E6000704700BF1800002070B50D4B0D4D5B1B77
:101E70009C100026A64209D100F010FF0A4D0B4B22
:101E80005B1B9C100026A64205D170BD55F8043B93
:101E900098470136EEE755F8043B98470136F2E7DC
:101EA0002C2D00082C2D00082C2D0008302D0008AA
:101EB000704770477047000038B50546002941D08B
:101EC00051F8043C0C1F002BB8BFE41800F0E0F8F8
:101ED0001D4A136833B9636014602846BDE8384072
:101EE00000F0DCB8A34208D9206821188B4201BF5A
:101EF00019685B6809182160EDE71A465B680BB149
:101F0000A342FAD911685018A0420BD120680144AD
:101F1000501883421160E0D118685B685360084430
:101F20001060DAE702D90C232B60D6E7206821186D
:101F30008B4204BF19685B68636004BF09182160A5
:101F40005460CAE738BD00BF7402002070B50F4E60
:101F50000C463168054611B900F0B2FC30602146EC
:101F6000284600F0ADFC431C03D14FF0FF3420465F
:101F700070BDC41C24F00304A042F8D0211A2846E6
:101F800000F09EFC0130F2D1EFE700BF70020020AC
:101F90002DE9F843CD1C25F0030508350C2D38BF7D
:101FA0000C25002D064601DBA94204D90C23336021
:101FB0000020BDE8F883DFF8D48000F069F8D8F895
:101FC00000301C4644BB29463046FFF7BFFF431C88
:101FD000044658D1D8F800402746002F43D1002CA2
:101FE0004BD023683946304604EB030900F068FC07
:101FF000814542D121686D1A29463046FFF7A6FF78
:1020000001303AD023682B442360D8F800305A6856
:1020100062BBC8F800700FE02268521B20D40B2A64
:1020200017D96119A342256018BF5960636808BFBA
:10203000C8F8001062514B60304600F02FF804F1F0
:102040000B00231D20F00700C21A1CBF1B1AA3504F
:10205000AFE76268A3420CBFC8F800205A60EBE704
:1020600023466468AEE73C467F68B6E71A465B687D
:10207000A342FBD100235360DEE70C2333603046DC
:1020800000F00CF894E70560D6E700BF740200206A
:102090000148FFF70EBF00BF6C0200200148FFF7A8
:1020A00009BF00BF6C0200209368013B002B10B4F5
:1020B000936008DA9469A34201DB0A2903D15DF831
:1020C000044B00F06BBB1368581C10601970084675
:1020D0005DF8044B7047F8B506460F461446D51810
:1020E000AC4201D1002007E014F8011B3A4630460B
:1020F000FFF7DAFF431CF3D1F8BD00002DE9F04FE4
:102100000D469DB014469846064618B1036A0BB9B1
:10211000FFF7CAFD6B6ED90705D4AB899A0502D4C7
:10212000A86DFFF7C6FEAB891B0701D52B699BB9CC
:102130002946304600F070FB70B16B6EDC0704D5A9
:102140004FF0FF301DB0BDE8F08FAB899805F7D494
:10215000A86DFFF7AFFEF3E70023099320238DF866
:102160002930CDF80C803023DFF8AC818DF82A308F
:102170004FF0010923469A4613F8012B0AB1252A8C
:10218000F9D1BAEB040B0BD05B4622462946304608
:10219000FFF7A1FF013000F0A780099A5A44099285
:1021A0009AF80030002B00F09F8000234FF0FF32A0
:1021B000CDE905230AF1010A049307938DF8533002
:1021C0001A935446052214F8011B5348FDF7E0FF0B
:1021D000049AD8B9D10644BF20238DF85330130791
:1021E00044BF2B238DF853309AF800302A2B15D09A
:1021F000079A544600204FF00A0C214611F8013B83
:10220000303B092B4BD9B0B1079214E0A0EB080387
:1022100009FA03F313430493A246D2E7039B191D63
:102220001B680391002BBBBF5B4242F00202079385
:102230000793B8BF049223782E2B0AD163782A2BF8
:1022400032D1039B1A1D1B68039243EAE3730234E5
:102250000593DFF8D4A0217803225046FDF798FFBC
:1022600038B1049BA0EB0A004022824013430134A2
:10227000049314F8011B29488DF828100622FDF755
:1022800087FF00283FD0264B1BBB039B073323F05F
:10229000070308330393099B3B4409936AE70CFB4C
:1022A00002320C460120A8E70023013405931946A9
:1022B0004FF00A0C204610F8012B303A092A03D9B6
:1022C000002BC6D00591C4E70CFB01210446012375
:1022D000F0E703AB00932A46124B04A93046AFF354
:1022E00000800746781CD6D16B6ED90705D4AB8920
:1022F0009A0502D4A86DFFF7DDFDAB895B063FF5BB
:102300001FAF09981EE703AB00932A46054B04A9AB
:10231000304600F079F8E4E7F02C0008FA2C0008C9
:1023200000000000D7200008F62C00082DE9F04737
:10233000164698468A680B69DDF820909342B8BF2C
:102340001346336091F8432007460C460AB1013327
:1023500033602368990642BF3368023333602568CF
:1023600015F0060506D104F1190AE36832689B1AD4
:10237000AB4226DC94F843302268003B18BF0123AF
:1023800092062BD404F1430241463846C847013037
:102390001ED02368226903F00603042B02BFE56800
:1023A0003368ED1AA3680CBF25EAE5750025934252
:1023B000C4BF9B1AED1800261A34B5421AD100206A
:1023C00008E00123524641463846C847013003D150
:1023D0004FF0FF30BDE8F0870135C6E7E1185A1C21
:1023E000302081F84300224494F8451082F84310CD
:1023F0000233C7E70123224641463846C847013029
:10240000E6D00136D9E700002DE9FF470F7E0C9E8C
:10241000782F914680460C469A4601F1430207D830
:10242000622F0AD8002F00F0D280582F00F0B7801A
:1024300004F1420684F842703AE0A7F16303152BD9
:10244000F6D801A151F823F0A1240008B524000812
:102450003124000831240008312400083124000808
:10246000B524000831240008312400083124000874
:1024700031240008B5250008DF2400086B2500087A
:102480003124000831240008D72500083124000831
:10249000DF240008312400083124000873250008D7
:1024A00033681A1D1B68326004F1420684F842301A
:1024B00001239DE033682068191D3160060601D5AF
:1024C0001D6803E04506FBD5B3F90050002D03DA83
:1024D0002D236D4284F8433059480A2310E02168C7
:1024E0003368080653F8045B02D4490648BFADB20E
:1024F0006F2F5348336059D10823002184F84310CB
:102500006668A660002E05DB21682E4321F00401D9
:1025100021604DD01646B5FBF3F103FB1157C75DA3
:1025200006F8017D2F46BB420D46F4D9082B0BD18E
:102530002368DF0708D5236961689942DEBF30232D
:1025400006F8013C06F1FF36921B2261CDF800A08F
:102550004B4603AA21464046FFF7E8FE01304CD126
:102560004FF0FF3004B0BDE8F087236843F020034C
:1025700023603448782784F84570236831681F0643
:1025800051F8045B02D45F0648BFADB23160D90791
:1025900044BF43F0200323601DB11023ADE728485A
:1025A000E9E7236823F020032360F6E70A23A4E782
:1025B0001646BBE7336825686169181D30602E0632
:1025C0001B6801D5196002E06806FBD5198000235D
:1025D00023611646BAE733681A1D32601E686268C6
:1025E00000213046FDF7D4FD08B1801B60606368B0
:1025F0002361002384F84330A8E723693246494623
:102600004046D0470130ABD023689B0713D4E06825
:10261000039B9842B8BF1846A4E7012332464946B7
:102620004046D04701309BD00135E36803995B1ADF
:10263000AB42F2DCEBE7002504F11906F5E700BF39
:10264000012D0008122D0008B1F90C202DE9F041F0
:10265000160705460C4651D44B68002B02DC0B6C68
:10266000002B49DDE66A002E46D0002312F480528A
:102670002F682B6031D0626DA389590705D5636837
:10268000D21A636B0BB1236CD21A0023E66A216A5B
:102690002846B047421CB4F90C3006D129681D29E0
:1026A00046D8294ACA40D60742D500226260D904DA
:1026B0002269226004D5421C01D12B6803B96065F0
:1026C000616B2F60C1B104F14403994202D02846E6
:1026D000FFF7F2FB002363630EE0216A0123284623
:1026E000B0470246501CC7D12B68002BC4D01D2B0D
:1026F00001D0162B1AD12F6000201EE00F69002F89
:10270000FAD093070E6808BF4B690F6018BF00230B
:10271000A6EB07088B60B8F1000FEDDD216AA66A11
:1027200043463A462846B047002808DCB4F90C3046
:1027300043F04003A3814FF0FF30BDE8F081074430
:10274000A8EB0008E7E700BF0100402038B50B699F
:1027500005460C4613B90025284638BD18B1036A52
:102760000BB9FFF7A1FAB4F90C30002BF3D0626E6D
:10277000D00704D4990502D4A06DFFF79AFB284630
:102780002146FFF761FF636EDA070546E4D4A389AB
:102790009B05E1D4A06DFFF78DFBDDE7F8B50E4694
:1027A0001446054618B1036A0BB9FFF77DFAA36911
:1027B000A360A3891A0701D5236943B92146284696
:1027C00000F02AF818B14FF0FF373846F8BD2368FB
:1027D0002269981A6369F6B28342374605DC2146BE
:1027E0002846FFF7B3FF0028EDD1A368013BA360A3
:1027F00023685A1C22601E706269431C9A4204D0EE
:10280000A389DB07E1D50A2EDFD121462846FFF751
:102810009DFF0028D9D0D6E738B5284B0546186863
:102820000C4618B1036A0BB9FFF73EFAB4F90C3045
:10283000190721D4DA0607D409222A6043F040039D
:10284000A3814FF0FF3031E0580712D5616B41B1E1
:1028500004F14403994202D02846FFF72DFB0023E0
:1028600063630022B4F90C3062602269226023F0B5
:10287000240343F00803A381226942B903F42073BF
:10288000B3F5007F03D02146284600F04DF8B4F997
:102890000C3013F001020AD00022A2606269524299
:1028A000A261226942B913F08000C7D138BD9907EF
:1028B00058BF6269A260F4E70020F7E71800002023
:1028C00038B5064D0023044608462B60FEF766FF28
:1028D000431C02D12B6803B1236038BD680200207D
:1028E00070B50C46B1F90E10002996B015461E467B
:1028F0000ADAA18911F0800113D14FF4806200201F
:1029000031602A6016B070BD6A4600F047F80028B2
:10291000EFDB019901F47041A1F50053594259418F
:10292000EBE700214022EAE78B8973B59E07054655
:102930000C4607D504F1470323602361012363613B
:1029400002B070BD01AB6A46FFF7CAFF009E284681
:102950003146FFF71DFBB4F90C3038B99A05EFD4B6
:1029600023F0030343F00203A381E3E743F0800372
:10297000A381019B2060C4E90406002BE0D0B4F9D8
:102980000E10284600F01CF80028D9D0A38923F0A7
:10299000030343F00103A381D2E7000038B5074DDC
:1029A00000230446084611462B60FEF72EFF431C09
:1029B00002D12B6803B1236038BD00BF680200203C
:1029C00038B5064D0023044608462B60FEF722FF6B
:1029D000431C02D12B6803B1236038BD680200207C
:1029E0002DE9F0478C468E46089E1546044619464A
:1029F000002B40F0D080724547D9B2FA82F74FB130
:102A0000C7F120030EFA07FC20FA03F3BD4043EAA6
:102A10000C0CBC404FEA154EA8B2BCFBFEF8230CD0
:102A20000EFB18CC08FB00F943EA0C43994528D962
:102A3000EB1808F1FF3204D2994502D9A8F102023D
:102A40002B44A3EB0903A4B2B3FBFEFC0EFB1C3327
:102A50000CFB00F044EA0344A04214D92C190CF1F9
:102A6000FF3304D2A04202D9ACF102032C44241A51
:102A700043EA02401EB1FC40002334607360BDE8AD
:102A8000F0874246DDE76346F1E7002A79D0B2FAE3
:102A900082F3002B3FD01946C1F1200302FA01F561
:102AA0002EFA03F20EFA01FE20FA03F343EA0E03B4
:102AB0004FEA154E00FA01F4B2FBFEFCAFB20EFB7A
:102AC0001C201A0C0CFB07F842EA004290455AD928
:102AD000AA180CF1FF3004D2904502D9ACF10200E3
:102AE0002A44A2EB08029BB2B2FBFEFC0EFB1C22A6
:102AF0000CFB07F743EA02439F4246D9EB180CF15F
:102B0000FF3204D29F4202D9ACF102022B44DB1BFC
:102B100042EA004202E0AEEB020301224FEA154E08
:102B2000AFB2B3FBFEFC200C0EFB1C330CFB07F812
:102B300040EA034398452AD9EB180CF1FF3004D240
:102B4000984502D9ACF102002B44A3EB0803A4B2D0
:102B5000B3FBFEFC0EFB1C330CFB07F744EA0344FB
:102B6000A74216D92C190CF1FF3304D2A74202D97F
:102B7000ACF102032C44E41B43EA00400F4611462B
:102B800078E71F2188E76046ABE76246BFE760460B
:102B9000DBE76346EFE7734506D916B9002108461F
:102BA0006DE7C6E9000EF9E7B3FA83F787B9734515
:102BB00001D3824207D8841A6EEB030301209C469E
:102BC0001EB900215BE73846FAE7C6E9004CF8E792
:102BD000C7F1200CBB4022FA0CF51D4320FA0CF182
:102BE0002EFA0CF30EFA07FE41EA0E014FEA1549E0
:102BF00000FA07F4B3FBF9F81FFA85FE09FB183059
:102C00000B0C08FB0EFA43EA00439A4502FA07F25E
:102C100040D9EB1808F1FF3004D29A4502D9A8F147
:102C200002002B44A3EB0A0389B2B3FBF9F809FBBA
:102C3000183308FB0EFE41EA03418E452CD9691872
:102C400008F1FF3304D28E4502D9A8F102032944CA
:102C500043EA0040A0FB0298A1EB0E014145CE469D
:102C6000434602D306D14C4504D2B9EB020E68EBC1
:102C700005030138002EA4D0B4EB0E0261EB030172
:102C800001FA0CFC22FA07F34CEA0303F940C6E907
:102C9000003196E74046C5E74346D9E7F8B500BF9F
:102CA000F8BC08BC9E467047F8B500BFF8BC08BC2D
:042CB0009E46704785
:102CB40044697374616E6365206973206C65737312
:102CC400207468616E20393A20256420636D0D0AF2
:102CD40000000000000000000102030400000000E6
:102CE400000000000102030406070809232D302B0D
:102CF4002000686C4C0065666745464700303132F9
:102D0400333435363738394142434445460030314F
:102D140032333435363738396162636465660000AE
:082D24006CD4FF7F01000000E8
:042D2C008902000810
:042D30006502000830
:102D340001000000100000000024F4000000000066
:102D4400030000002C0100201C00002000000000F3
:102D54002C01002094010020FC0100200000000050
:102D6400000000000000000000000000000000005F
:102D7400000000000000000000000000000000004F
:102D8400000000000000000000000000000000003F
:082D9400000000000000000037
:0400000508001B399B
:00000001FF
